:040000000C947600E6
:1400E4009A99794000000067CFEFD1E2CDBFDEBFCE51D040EC
:1400F8000AEA08830024E4E0F2E012E0E430F10711F0019229
:14010C00FBCF0083E8EEF0E0A0E0B2E010E000E00BBFEC3E16
:14012000F10721F0C89531960D92F9CF0E944103FFCF000083
:14013400000000000000000008950E947F03580144275527B6
:1401480003C0F3DF4F5F5F4F4A155B05D0F30C9484030027E2
:14015C00112702C00F5F1F4F043FE1E01E07D0F308950E948E
:140170007F0358014427552703C0EFDF4F5F5F4F4A155B050D
:14018400D0F30C94840384EA86BF26B627FEFDCF81B1887FC4
:14019800883011F001E028C086EA83B984E886BF26B627FE73
:1401AC00FDCF81B1887F883111F001E01BC003B984E886BF57
:1401C00026B627FEFDCF81B1887F883211F001E00FC023B9DE
:1401D40084E886BF26B627FEFDCF81B1887F883211F001E0C4
:1401E80003C084E986BF00270895AA9284EA86BF26B627FEDA
:1401FC00FDCF81B1887F883011F001E040C086EA83B984E838
:1402100086BF26B627FEFDCF81B1887F883111F001E033C001
:1402240003B984E886BF26B627FEFDCF81B1887F883211F098
:1402380001E027C084EA86BF26B627FEFDCF81B1887F803180
:14024C0011F001E01CC087EA83B984E886BF26B627FEFDCFB5
:1402600081B1887F803411F001E00FC084E886BF26B627FE3A
:14027400FDCF81B1887F883511F001E004C0A3B084E986BF09
:140288000A2DA99008958AB3806F8ABBA79AA69A08E214D095
:14029C000DD008E210E04DDF08E20ED00CE00CD001E00AD020
:1402B0000AE010E05CDF0895AF9A01E010E03FDFAF9808956C
:1402C4004A93402F00E110E038DFAE988BB38F708BBB842F76
:1402D800807F2BB2282A2BBAEBDF842F8F708295482F8BB3B7
:1402EC008F708BBB842F807F2BB2282A2BBADEDF49910895BF
:140300004A93402F00E110E01ADFAE9A8BB38F708BBB842F55
:14031400807F2BB2282A2BBACDDF842F8F708295482F8BB398
:140328008F708BBB842F807F2BB2282A2BBAC0DF49910895A0
:14033C000E948903A22E602FAA2019F4462F405802C0462F05
:140350004054042FB7DF0C9490030E949703C22EA02E4E8140
:140364005F812C2D0A2DE8DF05C0FA010081C6DF4F5F5F4F0C
:14037800FA0120802220B9F70C949E03AA92CA92C22EA02E4D
:14038C002C2D0A2DD5DF0A81B5DFC990A9900895AA92BA9243
:1403A000580128EE33E085010E945103C801C0968093000217
:1403B40028EE33E085010E944F03580124E630E00E94510329
:1403C800C801C0968093010224E630E085010E944F035801FF
:1403DC002AE030E00E945103C801C09680930202B990A99045
:1403F00008954A935A93259703E310E0FADE402F552702E358
:1404040010E0F5DE542F402F4030E0E05E0754F44095509598
:140418004F5F5F4F8DE28883222702E0AFDF05C080E288830F
:14042C00222702E0A9DF04EE10E00E946B03180129018A0149
:140440000E94DC033A932A931A930A93810192010E94D204C6
:1404540009831A832B833C8309811A812B813C810E94AE031D
:1404680099DF88E588832227002788DF8AE38883222701E017
:14047C0083DF209000022882222703E07DDF8EE28883222762
:1404900004E078DF209001022882222705E072DF209002028D
:1404A4002882222706E06CDF87E68883222707E067DF259677
:1404B8005991499108954A935A93259705E310E094DE402F90
:1404CC00552704E310E08FDE542F402F4030E0E05E0754F48D
:1404E000409550954F5F5F4F8DE2888321E002E049DF05C0A8
:1404F40080E2888321E002E043DF04EE10E00E946B03180177
:1405080029018A010E94DC033A932A931A930A9381019201C0
:14051C000E94D20409831A832B833C8309811A812B813C812F
:140530000E94AE0333DF89E7888321E0002722DF8AE3888336
:1405440021E001E01DDF20900002288221E003E017DF8EE21F
:14055800888321E004E012DF20900102288221E005E00CDF80
:14056C0020900202288221E006E006DF87E6888321E007E0F1
:1405800001DF25965991499108954A935A93259707E310E00B
:140594002EDE402F552706E310E029DE542F402F4030E0E05A
:1405A8005E0754F4409550954F5F5F4F8DE2888321E00AE017
:1405BC00E3DE05C080E2888321E00AE0DDDE04EE10E00E940E
:1405D0006B03180129018A010E94DC033A932A931A930A9386
:1405E400810192010E94D20409831A832B833C8309811A81BB
:1405F8002B813C810E94AE03CDDE8AE7888322270AE0BCDE3F
:14060C008AE3888322270BE0B7DE20900002288221E00BE051
:14062000B1DE8EE2888321E00CE0ACDE20900102288221E0E7
:140634000DE0A6DE20900202288221E00EE0A0DE87E68883FE
:1406480021E00FE09BDE25965991499108952BE001E397DDB6
:14065C0028E00CE294DD28E00DE291DD20E80EE28EDD222712
:140670000EE18BDD22270FE188DD25E000E285DD089504E1B6
:1406840010E073DD02DEE5DF06C0B1DE16DF7BDF04E610E000
:140698006ADDF9CF0895689401C0E894EA92FA928A93EE2432
:1406AC00FF2480E1000F111FEE1CFF1CE216F30618F0E21A5D
:1406C000F30A03958A95A1F716F40E2D1F2D8991F990E9902D
:1406D4000895EA93FA930A92E02FF12FD895002D3196D895D2
:1406E800102D3196D895202D3196D895302D0990F991E99112
:1406FC0008955A934A93BA92AA920895A990B9904991599118
:1407100008957A936A935A934A93BA92AA920895A990B990BD
:14072400499159916991799108955A934A93DA92CA92BA927E
:14073800AA920895A990B990C990D99049915991089500959A
:14074C001095209530950F5F1F4F2F4F3F4F08954A935A932B
:140760006A930E940A04F1F05523C2F04F31A8F44731C1F088
:1407740050F44195495E05C035952795179507954A95D1F776
:140788000DC04751000F111F221F331F4A95D1F705C03FE794
:14079C00232F132F032F04C0662311F00E94A5036991599107
:1407B00049910895689401C0E8942227332746F017FD2095E3
:1407C40017FD309503C0689401C0E8944A935A936A9347E15D
:1407D800662755272EF033231AF40E94A50360E80E941F042B
:1407EC0069915991499108950FD029F0662311F00E94A503D2
:1408000098940895002329F4112319F4222309F43323089565
:14081400F7DF79F0632F6078220F331F432F5FE7451B552710
:140828005040269530E8232B33279894089544275527662774
:14083C000895E2DF21F19A938A938EE790E0332351F03695A7
:1408500027951795079548175907C4F44F5F5F4FF4CF8095E5
:14086400909501962223AAF0000F111F221F481759071CF09A
:1408780041505040F5CF0027112722273327899199910895A4
:14088C0033270FEF102F2FE7322F89919991B4DF39F04158B1
:1408A0005F4F342F220F36952795362B0895AADF21F00F9341
:1408B40000E830270F910895F8DF3A932A931A930A9308956C
:1408C8008A929A92AA92BA92CA92DA92EA92FA924A935A93B2
:1408DC006A937A938A939A93089599918991799169915991E5
:1408F0004991F990E990D990C990B990A990999089900895F5
:140904000E946404AA93BA930E940A04D1F1E62ED52EC42ED0
:14091800B32EA22E912E802E00811181228133810E940A0493
:14092C0061F16E254C0D5D1D403853075CF541387FEF570797
:1409400064F1A29EB12DA02D919E912D802DA09E800D911D50
:14095400A31FB31F829E800D911DA31FB31F929E900DA11D81
:14096800B31FA19E900DA11DB31F2B2F1A2F092F880F001FAC
:14097C00111F221F331F0E941F04B991A9910E9473040895A5
:140990000FEF102F2FE74FE7F6CF0027102F202F302FF1CF31
:1409A400FA93EA93EC2FFD2F32960E948204E991F991249640
:0209B8000895A0
:00000001FF
