:020000040800F2
:100000000004002097190008890800088B080008E0
:100010008F080008930800089708000800000000F7
:100020000000000000000000000000009B08000825
:100030009D080008000000009F080008A1080008B3
:10004000FB060008B7190008B7190008B71900081F
:10005000B7190008B7190008B7190008B719000840
:10006000B7190008B7190008B7190008B719000830
:10007000B7190008B7190008B7190008B719000820
:10008000B7190008B7190008B7190008B719000810
:10009000B7190008B7190008B7190008B719000800
:1000A000B7190008B7190008B7190008B7190008F0
:1000B000B7190008B7190008B7190008B7190008E0
:1000C000B7190008B7190008B7190008B7190008D0
:1000D000B7190008B7190008B7190008B7190008C0
:1000E000B7190008B7190008B7190008B7190008B0
:1000F000B7190008B7190008B7190008B7190008A0
:10010000B7190008B7190008B7190008B71900088F
:10011000B7190008B7190008B7190008B71900087F
:10012000B7190008B7190008B7190008B71900086F
:1001300000F002F800F03CF80AA090E8000C8244BD
:100140008344AAF10107DA4501D100F031F8AFF29A
:10015000090EBAE80F0013F0010F18BFFB1A43F0A5
:1001600001031847A41E0000C41E0000103A24BF5B
:1001700078C878C1FAD8520724BF30C830C144BF0C
:1001800004680C607047000000230024002500264E
:10019000103A28BF78C1FBD8520728BF30C148BFEA
:1001A0000B6070471FB5AFF300801FBD10B510BDC9
:1001B00001F019FC1146FFF7F5FF00F021FB01F0FB
:1001C00037FCFFF7F3FF01F03DFC00002DE9FF4194
:1001D00004460D46284601F071FE074601F008FE70
:1001E000CDE90201F8A00CC8029801F0A7FCCDE906
:1001F000000101F033FC0646304601F027FE05B24F
:10020000002D04DA684205B22D20207001E0202084
:100210002070642095FBF0F03030C1B2601C0446C1
:100220000170642095FBF0F100FB115005B20A202B
:1002300095FBF0F03030C1B2601C044601700A201A
:1002400095FBF0F100FB115005B205F13000C1B291
:10025000601C04460170BDE8FF8108B54020ADF880
:10026000000003208DF8020014208DF80300694679
:10027000D74800F0C3FF8020ADF8000003208DF8C0
:10028000020014208DF803006946D14800F0B6FF43
:1002900008BD1E2001E0411EC8B20028FBD17047F6
:1002A00041F2883000E0401E0028FCD1704700B5C4
:1002B0008020C749103108604020C649C1F8100CA1
:1002C000FFF7E7FFC2480830006808B9012000E0E6
:1002D000002010F0800F01D0002000BD8020BC491C
:1002E00014310860FFF7D5FFBA48D0F8080C10F0B9
:1002F000800F01D00020F0E78020B549143108605C
:10030000FFF7C7FF0120E8E700B54020B0491431EE
:100310000860FFF7BEFF8020AE49C1F8140CFFF75C
:10032000B8FF4020AA4910310860FFF7B2FF8020D3
:10033000A849C1F8100CFFF7ACFF00BD00B5402084
:10034000A34914310860FFF7A4FF8020A149C1F838
:10035000140CFFF79EFF40209D4910310860FFF705
:1003600098FF40209B49C1F8140CFFF792FF00BD95
:1003700000B54020964914310860FFF78AFF8020BD
:100380009449C1F8100CFFF784FF402090491031C8
:100390000860FFF77EFF40208E49C1F8140CFFF77C
:1003A00078FF00BD00B54020894914310860FFF78F
:1003B00070FF80208749C1F8100CFFF76AFF4020CA
:1003C000834910310860FFF764FF8248D0F8080CB9
:1003D00010F0800F07D040207D4914310860FFF7EE
:1003E00058FF002000BD4020794914310860FFF714
:1003F00050FF0120F6E700B5034608221BE040202D
:10040000734914310860FFF744FF13F0800F04D0E4
:1004100080206F491031086003E080206C4914315E
:1004200008605806030EFFF734FF4020684910317A
:100430000860FFF72EFF1000A2F10101CAB2DED161
:10044000402063491431086000BD00B50822002334
:1004500080205F491031086015E05806030E4020E7
:100460005B4914310860FFF714FF40205949C1F877
:10047000100CFFF70EFF56480830006810F0800F90
:1004800001D043F001031000A2F10101CAB2E4D18E
:1004900040204F4914310860184600BD70B504462D
:1004A0000D461646FFF703FF08B9002070BD204631
:1004B000FFF7A1FFFFF776FF18B9FFF725FF002030
:1004C000F4E72846FFF797FFFFF76CFF3046FFF78A
:1004D00092FFFFF767FFFFF717FFFFF7E1FE01202D
:1004E000E4E770B504460D46FFF7E1FE08B90020C9
:1004F00070BD2046FFF77FFFFFF754FF30B9FFF7CD
:1005000003FF0120344908700020F1E72846FFF777
:1005100072FFFFF747FFFFF7CAFE601CC0B2FFF78C
:100520006AFFFFF73FFFFFF790FF0646FFF720FF48
:10053000FFF7EAFE3046DBE710B500F0B3F94FF401
:10054000803000F0CFF900F00CFA2449087008461A
:100550000078012826D1002000F042FA002000F0A7
:100560004FFA4FF4806000F043FA022000F07AFF67
:10057000102000F08AFF4FF4E0114FF4803000F0BB
:1005800014FA012000F01CFA00BF392000F0CDF968
:100590000028FAD0022000F016FA00BF00F01BFA83
:1005A0000828FBD101210C2000F0E2FA01213020C3
:1005B00000F0DEFA0121C02000F0DAFA012140F259
:1005C000011000F0D5FA10BDEC51B81E85EBB13F1B
:1005D000000C014000000140000000200600002047
:1005E00008B501213C2000F0C3FA4FF40070ADF8CB
:1005F000000018208DF8030003208DF802006946E2
:100600009A4800F0FBFD4FF48060ADF80000042034
:100610008DF803006946954800F0F0FD08BD00B56F
:1006200087B001214FF4904000F0A2FA0020ADF80D
:100630000400ADF806004FF40070ADF8080000208B
:10064000ADF80A0001A98A4800F091FB4FF4E130AF
:1006500003900020ADF81000ADF81200ADF81400C2
:10066000ADF818000C20ADF8160003A9804800F082
:1006700024FB40F225517E4800F062FC012240F24A
:1006800025517B4800F095FB0121794800F085FB5E
:1006900007B000BD08B54FF4E06000F0DFFC0020BB
:1006A0008DF800008DF80100684600F0DCFC08BD04
:1006B00010B50121C80200F068FA4FF4C07000F0D4
:1006C00096FC412000F09DFC502000F0B0FC00F0B2
:1006D000B9FC00F0A2FC10BD00E0401E0028FCD1D7
:1006E000704707E0002100E0491C4CF25032914273
:1006F000FAD3401E0028F5D1704710B5502000F005
:1007000090FC00F09FFC10BD10B5044621465848EF
:1007100000F0B2FB0120FFF7E4FF10BD00B50F228F
:100720002021D220FFF7BAFE00222121D220FFF79C
:10073000B5FE08222221D220FFF7B0FE302223216D
:10074000D220FFF7ABFE00222421D220FFF7A6FE25
:1007500000BD00B52821D220FFF7C3FE454908702F
:100760002921D220FFF7BDFE424948700846007893
:10077000497840EA012000B23F4908802A21D2206E
:10078000FFF7AFFE3B4988702B21D220FFF7A9FE6F
:100790003849C87008468078C97840EA012000B21C
:1007A000364908802C21D220FFF79BFE3149087181
:1007B0002D21D220FFF795FE2E4948710846007979
:1007C000497940EA012000B22D49088000BD70B58A
:1007D00005462846FFF798FF3A20FFF795FF0024CB
:1007E00005E02849085DFFF78FFF601CC4B2042CA8
:1007F000F7DB2020FFF788FF2020FFF785FF70BD83
:1008000010B5FFF799FEFFF7EBFEFFF708FFFFF7C4
:1008100024FD0A20FFF765FFFFF780FF25E0FFF7C3
:1008200098FF1548B0F900101648FFF7CFFC582084
:10083000FFF7CDFF1148B0F900101248FFF7C6FCD2
:100840005920FFF7C4FF0E48B0F900100D48FFF71C
:10085000BDFC5A20FFF7BBFF0D20FFF755FF0A2014
:10086000FFF752FF0520FFF73CFFD8E700080140E3
:10087000003801400B00002014000020160000206A
:100880001800002007000020704700BFFEE700BFEF
:10089000FEE700BFFEE700BFFEE770477047704706
:1008A00070470000DB48006840F00100D94908604B
:1008B00008464068D8490840D6494860084600685C
:1008C000D6490840D34908600846006820F48020D3
:1008D00008600846406820F4FE0048604FF41F009E
:1008E00088607047CB49096821F48031C94A11609A
:1008F0001146096821F480211160B0F5803F03D0D2
:10090000B0F5802F0ED106E0C249096841F480316C
:10091000C04A116007E0BF49096841F4A021BD4AFF
:10092000116000E000BF00BF704710B50146002213
:10093000002300204A11012A02D1B64C236806E0A8
:10094000022A02D1B34C236A01E0B24C636A01F07F
:100950001F02012494401C4201D0012000E000202D
:1009600010BD70B500240025002600BF3120FFF720
:10097000DCFF0646641CB4F5A06F01D0002EF5D054
:100980003120FFF7D2FF08B1012500E000252846FD
:1009900070BD00219F4A116821F0F80141EAC001B1
:1009A000116070479E49086070470022994B5A6851
:1009B00022F47C1240EA01031A43964B5A607047B6
:1009C0009749086670470021924A516821F0030157
:1009D0000143516070478F48406800F00C00704739
:1009E00000218C4A516821F0F001014351607047A9
:1009F0000021884A516821F4E06101435160704749
:100A00000021844A516821F4605141EAC0015160DB
:100A1000704729B17F4A527A02437E4B5A7206E0F0
:100A20007C4A527AC343DBB21A407A4B5A727047FF
:100A30007B49D831086070470021764A516821F41B
:100A400040410143516070470021724A20321170C9
:100A5000704A82F82010012802D004280AD104E04C
:100A600001216C4A2032117005E00521694A2032CB
:100A7000117000E000BF00BF70476A49086070470E
:100A80006449096A0143634A116270476549443900
:100A90000860704730B500210022002300245D4D1E
:100AA0006D6805F00C0121B1042905D0082923D176
:100AB00005E05D4D056022E05B4D05601FE0554D92
:100AC0006D6805F47012534D6D6805F4803302258E
:100AD00005EB92421BB9554D554305600BE04D4D5A
:100AE0006D6815F4003F03D0504D5543056002E09A
:100AF0004D4D5543056002E04B4D056000BF00BF02
:100B0000444D6D6805F0F0010909494D6C5C0568BC
:100B1000E54045603F4D6D6805F4E061090A444DCC
:100B20006C5C4568E54085603A4D6D6805F4605140
:100B3000C90A3F4D6C5C4568E540C560354D6D6840
:100B400005F44041890B3A4D10356C5CC568B5FB26
:100B5000F4F5056130BD29B12E4A526902432D4B8F
:100B60005A6104E02B4A526982432A4B5A6170470A
:100B700029B1284A92690243264B9A6104E0254A2A
:100B800092698243234B9A61704729B1214AD26905
:100B90000243204BDA6104E01E4AD26982431D4BB6
:100BA000DA61704729B11B4AD2680243194BDA60F7
:100BB00004E0184AD2688243164BDA60704729B1C4
:100BC000144A12690243134B1A6104E0114A126974
:100BD0008243104B1A6170471249403908607047D0
:100BE0000F49C86470470B49C87170470948406A8B
:100BF00040F0807007494862704701460020054A6E
:100C000092680A4201D0012000E0002070470149AB
:100C100088727047001002400000FFF8FFFFF6FEE8
:100C2000000042428004424200127A0000093D0066
:100C30001A00002010B50446E248844209D101217F
:100C40008803FFF7AFFF00214FF48040FFF7AAFFB2
:100C500032E0DD48844209D101214804FFF7AFFFAB
:100C600000214FF40030FFF7AAFF25E0D748844267
:100C700009D101218804FFF7A2FF00214FF4802051
:100C8000FFF79DFF18E0D248844209D10121C80432
:100C9000FFF795FF00214FF40020FFF790FF0BE0D6
:100CA000CC48844208D101210805FFF788FF0021C4
:100CB0004FF48010FFF783FF10BD2DE9F04786B099
:100CC00004460D460026002700BF00BFB246A88993
:100CD00000B100BFA246268A4CF6FF700640E888A5
:100CE00006432682A6894EF6F3100640A888298975
:100CF0000843698908430643A681A68A4FF6FF4048
:100D00000640A8890643A68201A8FFF7C3FE544601
:100D1000AC48824501D1049F00E0039F07EBC70068
:100D200000EB071029688900B0FBF1F86420B8FBDC
:100D3000F0F006013009642101FB1089322101EB3A
:100D400009106421B0FBF1F000F00F00064326818A
:100D500006B0BDE8F0874FF4165101600021818094
:100D6000C18001810C21418100218181704710B532
:100D70000022028A4FF2FF031A400B884C8823435B
:100D80008C882343CC8823431A43028210BD002160
:100D9000018041808180C180704721B1828942F405
:100DA0000052828104E082894DF6FF731A408281ED
:100DB0007047F0B50024002500260023A1F5106738
:100DC0006A3F00D100BF0346C1F3421401F01F0582
:100DD000012707FA05F6012C01D10C3304E0022C9F
:100DE00001D1103300E014331AB11F6837431F607C
:100DF00002E01F68B7431F60F0BD10B51AB1838AC7
:100E00000B43838204E0838ACC43A4B223408382D1
:100E100010BD028A4FF6F0731A400282028A0A431A
:100E20000282704782894FF2FF731A408281828961
:100E30000A438281704721B1828942F00202828195
:100E400004E082894FF6FD731A4082817047028A5E
:100E50004FF6DF731A400282028A0A430282704709
:100E600021B1028A42F48042028204E0028A4BF6F7
:100E7000FF731A4002827047C1F3080282807047F4
:100E800001468888C0F308007047818941F001015C
:100E900081817047028BD2B20283028B42EA012227
:100EA00002837047028B02F47F420283028B0A4363
:100EB0000283704721B1828A42F02002828204E0DC
:100EC000828A4FF6DF731A408282704721B1828A8C
:100ED00042F01002828204E0828A4FF6EF731A40D9
:100EE0008282704721B1828A42F00802828204E045
:100EF000828A4FF6F7731A4082827047828A4FF6D1
:100F0000FB731A408282828A0A438282704721B12F
:100F1000828A42F00202828204E0828A4FF6FD73E6
:100F20001A408282704702460020B1F5007F00D14E
:100F300000BF13880B4201D0012000E00020704761
:100F400001F40072B2F5007F00D100BFCA430280F5
:100F5000704770B502460023002400250020A1F54B
:100F600010666A3E00D100BFC1F3421501F01F04B4
:100F7000012606FA04F4012D02D19689344006E0D8
:100F8000022D02D1168A344001E0968A34400B12B9
:100F9000012606FA03F31688334014B10BB1012081
:100FA00000E0002070BD10B500220023A1F5106400
:100FB0006A3C00D100BF0A1201249440A3B2DC4372
:100FC000048010BD0038014000440040004800404B
:100FD000004C00400050004010B50121C802FFF74E
:100FE000EEFD00214FF40060FFF7E9FD10BD002188
:100FF000174A126822F4C0710143164AC2F8041C51
:1010000070470021124A126822F07F0100F07F022F
:101010001143104AC2F8041C704701200E490860B1
:10102000704700F07F010A4A121F1160704740F0BC
:101030008001074A121F116070470548001D0068B3
:10104000C0B2704700200249091D086070470000C7
:10105000042C004000200040A48005423249014396
:10106000324A1160704770B5002100230F22C47806
:101070000CB32E4C246804F4E064C4F5E064210A47
:10108000C1F10403CA40447804FA03F1847814409F
:1010900021430901264C0678A155047804F01F0568
:1010A0000124AC4005786D114FF0E02606EB850574
:1010B000C5F8004109E0047804F01F040125A540AB
:1010C0001C4C0678761144F8265070BD1A4A0A4026
:1010D0000243164B1B1F1A60704741B1134A121D81
:1010E000126802434FF0E023C3F8102D07E00F4AC7
:1010F000121D126882434FF0E023C3F8102D704791
:10110000042808D14FF0E021096941F004014FF0B3
:10111000E022116107E04FF0E021096921F00401AC
:101120004FF0E022116170470000FA050CED00E07D
:1011300000E400E080E100E080FFFF1F10B50446FE
:10114000BF48844208D101210420FFF72BFD002174
:101150000420FFF727FD46E0BA48844208D1012168
:101160000820FFF71FFD00210820FFF71BFD3AE0D4
:10117000B548844208D101211020FFF713FD00215A
:101180001020FFF70FFD2EE0B048844208D1012166
:101190002020FFF707FD00212020FFF703FD22E0BC
:1011A000AB48844208D101214020FFF7FBFC00211D
:1011B0004020FFF7F7FC16E0A648844208D1012141
:1011C0008020FFF7EFFC00218020FFF7EBFC0AE016
:1011D000A148844207D101218015FFF7E3FC0021DB
:1011E000A015FFF7DFFC10BD10B501210846FFF781
:1011F000D9FC00210120FFF7D5FC10BDF0B500227D
:101200000023002400250026002791F803C00CF0DD
:101210000F0291F803C01CF0100F03D091F802C028
:101220004CEA0202B1F800C01CF0FF0F31D0066892
:1012300000242BE04FF0010C0CFA04F5B1F800C0CB
:101240000CEA0503AB4220D1A5004FF00F0C0CFABD
:1012500005F7BE4302FA05FC4CEA060691F803C006
:10126000BCF1280F06D14FF0010C0CFA04FCC0F8B9
:1012700014C00AE091F803C0BCF1480F05D14FF04B
:10128000010C0CFA04FCC0F810C0641C082CD1D36B
:101290000660B1F800C0BCF1FF0F34DD46680024E1
:1012A0002EE004F1080C4FF0010E0EFA0CF5B1F827
:1012B00000C00CEA0503AB4221D1A5004FF00F0C92
:1012C0000CFA05F7BE4302FA05FC4CEA060691F853
:1012D00003C0BCF1280F05D104F1080C0EFA0CFE76
:1012E000C0F814E091F803C0BCF1480F07D104F135
:1012F000080C4FF0010E0EFA0CFEC0F810E0641C52
:10130000082CCED34660F0BD4FF6FF71018002215C
:1013100081700421C17070470246002093680B421F
:1013200001D0012000E0002070470146886880B2AB
:10133000704702460020D3680B4201D0012000E034
:10134000002070470146C86880B27047016170474D
:10135000416170470AB1016100E041617047C160BD
:1013600070474FF480320A438261816182618269F1
:10137000826970470022394B1A684FF680731A4011
:1013800042EA00120A43354B1A6070473449C8617B
:101390007047F0B500220023002500242F4E756809
:1013A000C0F3034482B200F44016B6F5401F08D1E2
:1013B00025F07065294E766826F07066274F7E60AE
:1013C00012E000F48016B6F5801F06D1032606FA57
:1013D00004F39D4345F0706506E0460D360102FAC0
:1013E00006F6B54345F0706521B1460D360102FAA7
:1013F00006F63543194E7560F0BD30B500228B07F7
:101400001C0F0F2303FA04F2144B08338C1053F80B
:10141000244094438D1043F825408C1053F8243019
:101420008C07240F00FA04F423430C4C08348D106D
:1014300044F8253030BD0A49DC31086070470000AF
:1014400000080140000C0140001001400014014060
:1014500000180140001C0140002001400000014034
:10146000000020420021FC4A116801F038010143CC
:1014700011607047F849096821F00801F64A1160C7
:1014800011460968014311607047F349096821F06A
:101490001001F14A1160114609680143116070475B
:1014A000EE48ED494860EE4848607047EA480069F8
:1014B00040F08000E849086170470420E649C968A7
:1014C00001F00101012901D101200EE0E249C968C2
:1014D00011F0040F01D0022007E0DF49C96811F0C4
:1014E000100F01D0032000E0042070470020FF20EF
:1014F00000E0401E0028FCD1704770B5044604256A
:10150000FFF7DBFF054605E0FFF7F0FFFFF7D5FF2C
:101510000546641E012D01D1002CF5D104B9052525
:10152000284670BD70B50446042540F6FF70FFF7ED
:10153000E4FF0546042D19D1C748006940F00200B8
:10154000C549086108464461006940F040000861EF
:1015500040F6FF70FFF7D1FF0546052D06D0BE48C7
:10156000006941F6FD710840BB490861284670BD1D
:1015700010B5042440F6FF70FFF7BFFF0446042CAB
:1015800018D1B548006940F00400B3490861084625
:10159000006940F04000086140F6FF70FFF7ADFFC2
:1015A0000446052C06D0AC48006941F6FB710840A2
:1015B000A9490861204610BD10B5042440F6FF700B
:1015C000FFF79BFF0446042C3BD1A448A249886046
:1015D000A34888600846006940F02000086108467A
:1015E000006940F04000086140F6FF70FFF785FF9A
:1015F0000446042C1CD19848006941F6DF7108406C
:10160000954908610846006940F010000861A5206E
:10161000944908800F20FFF770FF0446052C10D076
:101620008D48006941F6EF7108408B49086108E078
:10163000052C06D08848006941F6EF7108408649BC
:101640000861204610BD2DE9F04104460D460426F0
:1016500000270F20FFF751FF0646042E26D17E48B3
:10166000006940F001007C49086125800F20FFF7E8
:1016700044FF0646042E10D1A71C280C38800F20EA
:10168000FFF73BFF0646052E10D07348006941F670
:10169000FE7108407049086108E0052E06D06E48CA
:1016A000006941F6FE7108406B4908613046BDE8AB
:1016B000F08170B504460D4604260F20FFF71DFF8C
:1016C0000646042E13D16448006940F001006249C7
:1016D000086125800F20FFF710FF0646052E06D073
:1016E0005D48006941F6FE7108405B49086130467B
:1016F00070BD70B504460D4604260F20FFF7FDFEB1
:101700000646042E17D155485349886054488860CE
:101710000846006940F01000086125800F20FFF79F
:10172000ECFE0646052E06D04B48006941F6EF71E7
:10173000084049490861304670BD2DE9F04704462C
:101740004FF6FF752E462F46A8464FF00409E44396
:10175000E5B2C4F30726C4F307474FEA14680F2025
:10176000FFF7CBFE8146B9F1040F41D13B483A491E
:1017700088603B4888600846006940F010000861B6
:10178000FF2D06D03748083005800F20FFF7B5FE43
:101790008146B9F1040F08D1FF2E06D031480A3036
:1017A00006800F20FFF7A9FE8146B9F1040F08D18A
:1017B000FF2F06D02B480C3007800F20FFF79DFE2F
:1017C0008146B9F1040F09D1B8F1FF0F06D02648C0
:1017D000A0F80E880F20FFF790FE8146B9F1050FA3
:1017E00006D01D48006941F6EF7108401A490861AA
:1017F0004846BDE8F08770B50446042540F6FF7002
:10180000FFF77BFE0546042D4BD114481249886032
:10181000134888600846006940F0200008610846C7
:10182000006940F04000086140F6FF70FFF765FE78
:101830000546042D2CD10848006941F6DF710840A7
:10184000054908610846006940F0100008616CB164
:101850000020044908800CE0002002402301674575
:10186000AB89EFCD00F8FF1F00F0FF1FA520454911
:10187000088040F6FF70FFF740FE0546052D10D0AA
:101880004148006941F6EF7108403F49086108E0AE
:10189000052D06D03C48006941F6DF7108403A4901
:1018A0000861284670BD2DE9F04104460D461646F4
:1018B0000427364834498860354888600F20FFF790
:1018C0001CFE0746042F19D12F48006940F0100074
:1018D0002D49086146F0F800284320432949891C16
:1018E00008800F20FFF709FE0746052F06D026487F
:1018F000006941F6EF710840234908613846BDE8A8
:10190000F0812148C069800870471F48006A70470D
:1019100000201D49C96911F0020F01D0012000E02B
:101920000020704700201849096811F0200F01D0ED
:10193000012000E00020704729B1134A12690243D8
:10194000114B1A6104E0104A126982430E4B1A616E
:10195000704701460020012908D10B4AD26912F0D4
:10196000010F01D0012008E0002006E0064AD268FD
:101970000A4201D0012000E0002070470249C860FF
:101980007047000000F8FF1F002002402301674558
:10199000AB89EFCD70470B4880470B4981F308882E
:1019A0000A480047FEE7FEE7FEE7FEE7FEE7FEE740
:1019B000FEE7FEE7FEE7FEE705480649064A074B55
:1019C00070470000951900089006002031010008BA
:1019D000900000209006002090020020900200203D
:1019E000704770477047754600F028F8AE4605000E
:1019F0006946534620F00700854618B020B5FFF72A
:101A0000DBFFBDE820404FF000064FF000074FF02D
:101A100000084FF0000B21F00701AC46ACE8C0090C
:101A2000ACE8C009ACE8C009ACE8C0098D46704715
:101A30000446AFF300802046FEF7C3FB0048704722
:101A40003000002003494FF01800ABBE7047000083
:101A500009000000260002007047000001F000436A
:101A600021F0004181EA410212F0FE4F08BF12F45A
:101A7000600F00F02880A1F16051B1F5801F1BDBE1
:101A800002014FF0404C09D803D208BF4FF0000CC0
:101A90000AE000F000521CEB820C05D410F100505B
:101AA0004FF0804C41F10001B1F17F6F06DA43EA5B
:101AB000C10343EA50707047184670474FF0FF0269
:101AC00043EAC250704711F4801F01D11846704795
:101AD000DFF818C041EA030150EA013240F01080FB
:101AE000AFF3008021F4E00070470000880000049C
:101AF00002494FF0000000F03DBA00000000F87FFE
:101B000002494FF0000000F035BA00000000F87FF5
:101B100010F0004314BF4142014643F08043B1FA44
:101B200081FC03F1F87311FA0CF1A3EB0C534FEAAB
:101B3000415008BF704703EBE1217047DFF8B4C1A3
:101B400070B53CEA111E18BF3CEA131E00F0A680D7
:101B500081EA03050CEA111E4EEAD57E1CEA131534
:101B600018BF11EA0C1F00F08F80AE4421EA4C111F
:101B700023EA4C13AEF17F7E41F4801143F48013CD
:101B8000A1FB024CA0FB0365361955EB0C05A1FB2C
:101B9000034C4CF10003A0FB021C16EB0C06654144
:101BA00053F10003094218BF46F001064FF0140C30
:101BB000B3F5007F4CF1000CCCF1200425FA0CF2B7
:101BC00003FA04F141EA020105FA04F026FA0CF2E4
:101BD00040EA02006FF0030242EB2E4216FA04F4D0
:101BE00001EB025585EACE7115D05FEA440C38BF8F
:101BF0004FF040440FD308BF43F0004350F10000C2
:101C000041F1000110EAD37F4FF0804420EAD37005
:101C100018BF4FF0404415F0004FDFF8DCC017D478
:101C200015EA0C0F18BF3CEA010C11D070BD5FEA39
:101C3000CE7454BF1CF4000F1CF4800F0ABF4FF089
:101C400080444FF0404410F1010041F10001E2E70F
:101C5000BEF1806FA2BFA1F1C04144F0130C4CF063
:101C6000805CBDE8704006DA4FF0000001F1C04131
:101C700001F0004170476FF0000041EA500181EA35
:101C800010314FF0000070474FEACE714FF0000066
:101C900070BD4FEACE714FF0000070BD4FEA4105B4
:101CA000B5EB4C1F4FEA430608BF002898BFB6EBC0
:101CB0004C1F08BF002ABDE87040DFF840C03FF667
:101CC00017AFAFF300804FF4001CBCEB410F98BF7F
:101CD000BCEB430F0AD84FF0000081EA030101F08A
:101CE000004141F0FE4141F47001704704494FF05A
:101CF000000070470000FF070000F07F13000004A1
:101D00000000F87F094248BF4CF4803C4FF4C063A8
:101D10004FEA115203F1010321EA025122F4006259
:101D20009A1A48BF6FF0FE0241F48011352A3CD860
:101D300030D0152A1ED3203A0CD90028C2F1200336
:101D400021FA02F001FA03F218BF42F001024FF04B
:101D5000000130E0C2F1000302F1200201FA03F1B8
:101D600020FA02F241EA020100FA03F208464FF0BB
:101D7000000120E0C2F1200310B400FA03F401FADC
:101D800003F320FA02F021FA02F1224610BC43EAE2
:101D9000000010E050EA01324FF000004FF0000167
:101DA0004FF0004218BF521C05E04FF001024FF007
:101DB00000014FF000001CF4803F2CF4803C18BF61
:101DC00041F00041124208BF7047520003D303D0D4
:101DD000401C41F1000170475FEAAC72F8D4FAD1BF
:101DE000401C41F1000120F00100F4E7704770470A
:101DF00000F5000C1CF0FE4F09D0C1104FEA4070F6
:101E000001F1605158BF7047A1F1E04170471CF4E7
:101E1000000F08D00146400008BF70474FF0000097
:101E20004FEA30017047DFF814C0420240F00880EA
:101E3000AFF3008040F4E001104670471800000442
:101E4000014800F097B800000000C07FC2154FEABB
:101E5000002318BF43F0004305D4D2F19E0213D9EA
:101E600023FA02F07047B0F14F4F0DD812F0FF0285
:101E700008BF23F000434FF00000D2F19E0223FA86
:101E800002F1A0EB01007047DFF82CC04FEA4001DF
:101E9000B1F17F4F88BF4CF4803C3FF6D1AF1EBFFD
:101EA0006FEAE07080F000407047AFF300806FEAA7
:101EB000E07080F0004070474800020410F00042DB
:101EC00018BF404242F08042B0FA80F18840A2EB55
:101ED000C15202F1786208BF7047410642EB2020F0
:101EE00018BF5FF0806C28BF20F00100704700F041
:101EF000004343EAD05323F48073C3F1C10323F0BA
:101F0000004117291FD8C3F1200310FA03F1C3F1D0
:101F1000200320F07F4040F4000020FA03F003F09B
:101F2000004340EA03000DD00B46590009D318BF07
:101F3000401C06D17FEAE27398BF401C38BF20F0F6
:101F4000010070477047182903EB912318BF6FF009
:101F50000041013168BF03F0004009D6400203F0A0
:101F6000004000F1010004BF12F0004F20F001001A
:101F7000704770470CF00F03092B08BF082000F0D2
:101F80002B800A2B0BD0082B18BF704708BF1CF002
:101F9000400F0AD04FF000004FF0000170471CF0D6
:101FA000400F18BF4FF0004070471CF0100F08D0D2
:101FB00020F0704300F07F4242EAD3014FEA4370C1
:101FC000704700F0604021F07F4242EA000201F0D9
:101FD0007F4040EA727070471CF4801F11D01CF4DF
:101FE000E02F03D06FEACC31490070474FF04050EA
:101FF000EFF3008222F0704242EA000282F300888E
:1020000070474FF0000070472820000800000020B3
:10201000300000006C01000858200008300000204B
:1020200060060000880100080000000000000000B9
:1020300000000000000000000000000000000000A0
:10204000000000000000010203040102030406076F
:08205000080902040608000063
:0400000508000131BD
:00000001FF
